:04000000ACEF03F06E
:10030000FFFF155BB9D010A08007AB280064E71E83
:1003100041717D00C682554F0C9745B82DFC9780E2
:10032000A1046ADF0000C580C5B0FED7C2EC03F0AF
:10033000296E200E256E295026EC03F00009D8B452
:1003400002D0010E5CD0C2EC03F026C025F026ECF2
:1003500003F0C2EC03F0C582C5B2FED7C2EC03F0D5
:10036000296E210E256E295026EC03F0C2EC03F015
:1003700090EC03F02F6EC2EC03F0C59AC588C5B8A7
:10038000FED7C2EC03F090EC03F0306EC2EC03F049
:10039000C58AC588C5B8FED7C2EC03F0C584C5B40C
:1003A000FED7C2EC03F02F50296E2A6A27C0D9FF6E
:1003B00028C0DAFF29C0DEFF2AC0DDFF27C0D9FF31
:1003C00028C0DAFFDE50DD6EDF6A27C0D9FF28C003
:1003D000DAFFDECF29F0DDCF2AF030502B6E2C6A09
:1003E00029502B102D6E2A502C102E6E27C0D9FFAD
:1003F00028C0DAFF2DC0DEFF2EC0DDFF000E120088
:10040000376E000E3B6E37501BD03B50020D000E76
:10041000F324F66E030EF420F76E0900F5CF37F0E3
:100420000900F5CF38F03B50020D010EF324D96ED0
:10043000000EF420DA6E37C0DEFF38C0DDFF3B2A45
:10044000110E3B64E2D701C039F002C03AF00190CE
:10045000376E000E266E37506CEC02F00009D8A4FF
:100460001ED0376E010E3B6E375008D03BC026F0D1
:100470006CEC02F00009D8A412D03B2A110E3B64A8
:10048000F5D7010E3910016E3A50026E376E000E2C
:10049000266E37506CEC02F00009D8B402D0010E81
:1004A0001AD0000E266E140E256E77EC03F006D0DF
:1004B000000E266E020E256E77EC03F0000E326EF3
:1004C000390E316E51EC03F03A503910D8B4F0D7F0
:1004D000CCEC03F0000E12002650020D010EF324A6
:1004E000D96E000EF420DA6EDECF27F0DDCF28F0D3
:1004F00028C027F0286A2750296E2650020D010EC9
:10050000F324D96E000EF420DA6EDF502A6EC58017
:10051000C5B0FED7C2EC03F0276E200E256E275023
:1005200026EC03F00009D8B402D0010E1AD0C2ECB8
:1005300003F026C025F026EC03F0C2EC03F029C03E
:1005400025F026EC03F0C2EC03F02AC025F026ECDF
:1005500003F0C2EC03F0C584C5B4FED7C2EC03F0CF
:10056000000E1200720ED36E0F010F015A690F01B7
:100570000F015B690F010F015C69000E0F010F0194
:100580005D6F880E0F010F01596F360E0F010F01BD
:10059000586F3F0EC16E030E926E210E936E180EB1
:1005A000946E9868000E806E000E816E000E826E52
:1005B000F294080ED56E000ED76E000ED66ED58E54
:1005C000276E080E256E2750286E800E266E285046
:1005D0009EEC03F03F0EC86E1200000E266E140E45
:1005E000256E77EC03F0B2EC02F0000E326E3F0E97
:1005F000316EB7EC03F04050100A100ED8B43F181B
:10060000D8A4CAEC03F000EC02F00009D8A4CAECAC
:1006100003F0000E266E3E0E256EC8EC03F03D6E14
:100620003D04D8B40BD0F5D73C6E010E256E3C507E
:10063000CBEC03F0EED7CAEC03F0EBD73E50010A47
:10064000D8B4F2D7810AD8B4F6D7E3D725C0C9FF0A
:10065000C6AE02D0FF0E24D0C6500F0B080AD8B485
:100660000CD0C6500F0B0B0AD8B407D0C6889EA674
:10067000FED7C7A4C7B013D010D0C6500F0B080ABE
:10068000D8B405D0C6500F0B0B0AD8A409D0C7B0F8
:10069000FED7C2EC03F0C5AC02D0FE0E01D0000EB6
:1006A0001200336E130E266E3350000E286E350E78
:1006B000276E93EC01F00009D8B402D0010E16D0D9
:1006C000200E3516000E361636503510D8B402D02E
:1006D000010E01D0000E336E346A31C0D9FF32C032
:1006E000DAFF33C0DEFF34C0DDFF000E1200000E63
:1006F000286E000E276E0FD0000E286E640E276E37
:1007000003D02706D8A0280628502710D8A4F9D748
:100710002506D8A0260626502510D8B41200ECD7FE
:10072000C6500F0B080AD8B404D0C6500F0B0B0AE2
:10073000D8B4C586C7A0FED7C95012003F0EC71651
:10074000000EC66E000EC56E2550C6122650C7128A
:1007500094869488C68A120000EE01F0240EEE6A98
:10076000E806FDE1000EF86E0001EDEF02F0336ED9
:100770001C0E266E335031C027F032C028F093ECA7
:1007800001F01200C5501F0BD8B4C7B4FBD712003C
:0A079000000E1200FFD71200120045
:020000040020DA
:08000000FFFFFFFFFFFFFFFF00
:020000040030CA
:0A000000FF09191EFF8180FF01FFB8
:00000001FF
