:040000008FEF03F08B
:1003000000FFFF155BB9D010A08007AB280064E7A1
:100310001E41717D00C682554F0C9745B82DFC9744
:1003200080A1046ADF002F6EC580C5B0FED79AECAD
:1003300003F0200EDCEC02F00009D8B402D0010E6C
:1003400012009AEC03F02F50DCEC02F09AEC03F070
:10035000C582C5B2FED79AEC03F0210EDCEC02F0A8
:100360009AEC03F081EC03F0306E9AEC03F0C59A3E
:10037000C588C5B8FED79AEC03F081EC03F0316E66
:100380009AEC03F0C58AC588C5B8FED79AEC03F08D
:10039000C584C5B4FED79AEC03F030502B6E2C6A9E
:1003A00029C0D9FF2AC0DAFF2BC0DEFF2CC0DDFF39
:1003B00029C0D9FF2AC0DAFFDE50DD6EDF6A29C00E
:1003C000D9FF2AC0DAFFDECF2BF0DDCF2CF0315081
:1003D0002D6E2E6A2B502D122C502E1229C0D9FFB3
:1003E0002AC0DAFF2DC0DEFF2EC0DDFF000E120096
:1003F000000E3A6E110E3A6401D018D03A50020D38
:10040000010EF324F66E030EF420F76E3A50020D3F
:10041000010EF324D96E000EF420DA6E0900F5CF38
:10042000DEFF0800F5CFDDFF3A2AE4D701C038F03F
:1004300002C039F00190000E5BEC02F00009D8B464
:1004400002D0010E1200010E3A6E110E3A6401D074
:100450000AD03A505BEC02F00009D8B402D0010E89
:1004600012003A2AF2D7010E3810016E3950026E8E
:10047000000E5BEC02F00009D8B402D0010E1200AD
:10048000000E286E140E276E59EC03F006D0000EF5
:10049000286E020E276E59EC03F0380E326E000EF5
:1004A000336E36EC03F038503910D8B4F0D7B0ECD6
:1004B00003F0000E12002D6E2D50020D010EF324DC
:1004C000D96E000EF420DA6EDECF29F0DDCF2AF0EF
:1004D0002AC029F02A6A29502B6E2D50020D010ED8
:1004E000F324D96E000EF420DA6EDF502C6EC58036
:1004F000C5B0FED79AEC03F0200EDCEC02F0000948
:10050000D8B402D0010E12009AEC03F02D50DCECAE
:1005100002F09AEC03F02B50DCEC02F09AEC03F0C2
:100520002C50DCEC02F09AEC03F0C584C5B4FED785
:100530009AEC03F0000E1200000E286E140E276EC7
:1005400059EC03F00BEC03F03D0E326E000E336EEF
:10055000A3EC03F0100E3D1803E1100E3E18D8A4D2
:10056000AFEC03F0F8EC01F00009D8A4AFEC03F015
:100570003C0E276E000E286EADEC03F03B6E3B0484
:10058000D8B40CD0F5D7010EABEC03F0F1D7000EC8
:10059000ABEC03F0EDD7AFEC03F0EAD73C50010A27
:1005A000D8B4F1D7030AD8B4F2D7060AD8B4E0D742
:1005B000840AD8B4F0D7DCD7286E28C0C9FFC6AEED
:1005C00002D0FF0E1200C6500F0B080AD8B40FD08D
:1005D000C6500F0B0B0AD8B40AD0C6889EA6FED709
:1005E000C7A4C7B002D0FE0E1200000E1200C65003
:1005F0000F0B080AD8B405D0C6500F0B0B0AD8A4AD
:100600001200C7B0FED79AEC03F0C5AC02D0FE0EC4
:100610001200000E1200720ED36E0F015A695B6950
:100620005C69000E5D6F880E596F360E586F3F0E75
:10063000C16E030E926E210E936E180E946E986822
:10064000000E806E000E816E000E826EF294080E17
:10065000D56E000ED76E000ED66ED58E800E276E2C
:10066000080E72EC03F03F0EC86E1200360E296EB3
:10067000000E2A6E130E93EC01F00009D8B402D0DC
:10068000010E1200200E3616000E371636503710A7
:10069000D8B402D0010E01D0000E346E356A32C0DB
:1006A000D9FF33C0DAFF34C0DEFF35C0DDFF000EF6
:1006B0001200000E2A6E000E296E0FD0000E2A6E58
:1006C000640E296E03D02906D8A02A0629502A10C4
:1006D000D8A4F9D72706D8A0280627502810D8B4C0
:1006E0001200ECD7286E3F0EC716000EC66E000E25
:1006F000C56E2850C6122750C71294869488C68AA1
:100700001200C6500F0B080AD8B404D0C6500F0B05
:100710000B0AD8B4C586C7A0FED7C950120000EE98
:1007200001F0260EEE6AE806FDE1000EF86E00010B
:100730009CEF02F0C5CF27F01F0E2716D8A4FAD7DA
:10074000C7A41200F7D732C029F033C02AF01C0E1C
:1007500093EC01F01200276E1200000E1200FFD77A
:02076000120085
:020000040020DA
:08000000FFFFFFFFFFFFFFFF00
:020000040030CA
:0A000000FF09191EFF8180FF01FFB8
:00000001FF
